:020000040800F2
:1000000000200020A10A00088D0A00088F0A0008BD
:1000100000000000000000000000000000000000E0
:10002000000000000000000000000000910A00082D
:100030000000000000000000930A0008950A000874
:10004000F10A0008F10A0008F10A0008F10A0008A4
:10005000F10A0008F10A0008F10A0008F10A000894
:10006000F10A0008F10A0008F10A0008F10A000884
:10007000F10A0008F10A0008F10A0008F10A000874
:10008000F10A0008F10A000800000000F10A000867
:10009000F10A0008F10A0008F10A0008F10A000854
:1000A000F10A0008F10A0008F10A0008F10A000844
:1000B000F10A000800000000F10A0008000000003A
:1000C00000200020C900000806484169064A114383
:1000D000416106485521C1600549064A0A6000226F
:1000E0004A61FDE7001002400000060000000048E1
:1000F000000400485555000000000000000000000A
:10010000002243088B4274D303098B425FD3030A56
:100110008B4244D3030B8B4228D3030C8B420DD369
:10012000FF22090212BA030C8B4202D312120902F7
:1001300065D0030B8B4219D300E0090AC30B8B4235
:1001400001D3CB03C01A5241830B8B4201D38B03E3
:10015000C01A5241430B8B4201D34B03C01A524188
:10016000030B8B4201D30B03C01A5241C30A8B42CB
:1001700001D3CB02C01A5241830A8B4201D38B02B6
:10018000C01A5241430A8B4201D34B02C01A52415A
:10019000030A8B4201D30B02C01A5241CDD2C309CC
:1001A0008B4201D3CB01C01A524183098B4201D348
:1001B0008B01C01A524143098B4201D34B01C01A33
:1001C000524103098B4201D30B01C01A5241C308AB
:1001D0008B4201D3CB00C01A524183088B4201D31A
:1001E0008B00C01A524143088B4201D34B00C01A06
:1001F0005241411A00D20146524110467047FFE772
:1002000001B5002000F006F802BDC0460029F7D075
:1002100076E770477047C04610B5064C2378002B30
:1002200007D1054B002B02D0044800E000BF01239A
:10023000237010BD0C000020000000004C0B0008D3
:10024000044B10B5002B03D00349044800E000BF65
:1002500010BDC04600000000100000204C0B00083C
:1002600082B00A4B5A698021C9030A435A615A690C
:100270000A400092009A5A69802189020A435A6111
:100280005B690B400193019B02B070470010024074
:1002900072B6FEE710B590B004AC30220021200009
:1002A00000F027FC10220021684600F022FC022307
:1002B0000493013B07930F330893200000F0D4F818
:1002C00000280DD168460723009300230193029371
:1002D0000393002100F040FB002803D110B010BDB3
:1002E000FFF7D6FFFFF7D4FF10B500F02FF8FFF7A8
:1002F000EBFEFFF7CFFFFFF7B3FFFEE710B50400FB
:100300000F4B1978FA208000FFF7FAFE01000D4B21
:100310001868FFF7F5FE00F08BF800280DD1032CCC
:1003200001D901200AE0013000222100404200F002
:100330007BF8054B1C60002000E0012010BDC0468A
:1003400000000020080000200400002010B5064A2C
:10035000136810210B4313600320FFF7CFFF00F059
:100360006BF8002010BDC04600200240034A11680F
:10037000034B1B785B1813607047C04628000020B1
:1003800000000020014B18687047C046280000207C
:1003900070B5002811DB8308134DC0339B005C59F6
:1003A00003221040C000FC3216008640B44389018D
:1003B0000A40824022435A5170BD0F230340083B3C
:1003C0009B0806339B00094A944663445C680322F9
:1003D0001040C000FC3215008540AC4389010A4042
:1003E000824022435A60E7E700E100E000ED00E0D0
:1003F000013880235B0498420FD2094A50600948B3
:10040000036A1B021B0AC02109060B430362002377
:10041000936007331360002070470120FCE7C0465B
:1004200010E000E000ED00E010B5FFF7B1FF10BDF7
:1004300010B5FFF7DDFF10BD82B00A4B99690122AC
:100440001143996199690A400092009ADA69802102
:1004500049050A43DA61DB690B400193019B02B055
:100460007047C0460010024070B582B0041E00D133
:100470002EE20368DB0726D5AE4B5A680C231340E7
:10048000042B18D0AB4B5A680C231340082B0ED00A
:100490006368012B3CD0002B51D1A64B1A68A649AA
:1004A0000A401A601A68A5490A401A6036E0A14B52
:1004B0005B68DB03ECD59F4B1B689B0303D563682C
:1004C000002B00D107E223689B0772D5994B5B682C
:1004D0000C221A425DD0974B5A680C231340082B0C
:1004E00053D0E368002B00D185E0924A13680121C4
:1004F0000B431360FFF746FF05008E4B1B689B07FD
:1005000070D4FFF73FFF401B0228F6D90320E0E13B
:10051000884A116880235B020B4313606368002BD9
:1005200025D0FFF72FFF0500824B1B689B03CAD421
:10053000FFF728FF401B6428F6D90320C9E1052BEB
:1005400009D07C4B1A687C490A401A601A687B49BA
:100550000A401A60E2E7774B19688022D2020A4308
:100560001A601968802252020A431A60D6E7FFF720
:1005700009FF05006F4B1B689B03A4D5FFF702FF23
:10058000401B6428F6D90320A3E16A4B5B68DB03B8
:10059000A7D4684B1B689B0703D5E368012B00D0E9
:1005A0009BE164490B68F82293432269D20013430C
:1005B0000B6023681B0744D5E369002B2ED05D4AEE
:1005C000536A01210B435362FFF7DCFE0500594BD0
:1005D0005B6A9B0735D4FFF7D5FE401B0228F6D98E
:1005E000032076E153490B68F82293432269D20035
:1005F00013430B60DDE74F4A136801218B431360FF
:10060000FFF7C0FE05004B4B1B689B07D1D5FFF7DA
:10061000B9FE401B0228F6D903205AE1454A536A25
:1006200001218B435362FFF7ADFE0500414B5B6A2E
:100630009B0706D5FFF7A6FE401B0228F6D903202C
:1006400047E123685B0700D480E03A4BDB69DB00BD
:100650001DD4384BDA69802149050A43DA61DB6928
:100660000B400193019B0125354B1B68DB0510D521
:10067000A368012B21D0002B36D12E4B1A6A012101
:100680008A431A621A6A03318A431A621AE0002501
:10069000EAE72B4A116880235B000B431360FFF7E6
:1006A00071FE0600264B1B68DB05E1D4FFF76AFEEE
:1006B000801B6428F6D903200BE11E4A136A01212E
:1006C0000B431362A368002B24D0FFF75BFE0600E8
:1006D000184B1B6A9B0737D4FFF754FE801B194B3E
:1006E0009842F5D90320F4E0052B09D0114B1A6A82
:1006F00001218A431A621A6A03318A431A62E1E7C6
:100700000C4B1A6A04210A431A621A6A03390A4313
:100710001A62D7E7FFF736FE0600064B1B6A9B07F7
:1007200012D5FFF72FFE801B064B9842F5D9032008
:10073000CFE0C04600100240FFFFFEFFFFFFFBFFBF
:100740000070004088130000012D33D02368DB06C1
:1007500010D56369012B33D0053351D1654A536BF2
:1007600004218B435363536BF4318B43A169C9005C
:100770000B435363236A002B00D1B0E05D4A5168FC
:100780000C220A40082A00D18AE0022B4FD0594A95
:10079000136859490B401360FFF7F4FD0400554BF3
:1007A0001B689B017AD5FFF7EDFD001B0228F6D9E7
:1007B00003208EE04F4AD36950490B40D361C5E70F
:1007C0004C4B5A6B04210A435A635A6B03390A4350
:1007D0005A63FFF7D7FD0500464B5B6B9B0706D4BA
:1007E000FFF7D0FD401B0228F6D9032071E04149F4
:1007F0004B6BF8229343A269D20013434B63B9E7D2
:100800003C4B5A6B04210A435A635A6B03398A439F
:100810005A63FFF7B7FD0500364B5B6B9B07A9D505
:10082000FFF7B0FD401B0228F6D9032051E0314A02
:10083000136831490B401360FFF7A4FD05002D4BF1
:100840001B689B0106D5FFF79DFD401B0228F6D9CA
:1008500003203EE0274BDA6A0F218A43E16A0A430C
:10086000DA625A6826490A40A16A606A01430A436B
:100870005A601968802252040A431A60FFF782FD09
:1008800004001C4B1B689B0106D4FFF77BFD001B7B
:100890000228F6D903201CE000201AE0002018E00E
:1008A000012B1ED0134B5A68D86A80235B02134079
:1008B000616A8B4217D10F230340E16A8B4214D146
:1008C000F0239B031A40A36A9A4210D1002000E053
:1008D000012002B070BD0120FBE70120F9E70020F4
:1008E000F7E70120F5E70120F3E70120F1E7012018
:1008F000EFE7C04600100240FFFFFFFEFFFFFFEFE3
:10090000FFFFC2FF10B5104B5A680C231340082B91
:1009100001D00E4810BD910C073319400C48445CBF
:100920000949C96A0B400B49C95CD20304D5074881
:10093000FFF7E6FB6043EDE76201121B93019B1A90
:10094000DB001B191802E5E70010024000127A00D4
:10095000740B0008640B000870B504000D0000283B
:1009600000D17EE0434B1A68012313408B420AD228
:1009700040490B68012293432B430B600B681A40DC
:10098000AA4200D06FE023689A070ED55B0705D511
:10099000394A5168E023DB000B435360364A536801
:1009A000F0218B43A1680B4353602368DB072DD5EF
:1009B0006368012B1ED0022B22D02F4A12689207A7
:1009C00053D52D494A680320824313434B60FFF7F8
:1009D000D9FC0600284B5B680C221A4063689B0018
:1009E0009A4213D0FFF7CEFC801B244B9842F1D9DA
:1009F000032035E0204A12689203E2D401202FE060
:100A00001D4A12689201DCD4012029E0194B1A68B2
:100A100001231340AB4209D916490B6801229343C5
:100A20002B430B600B681A40AA4220D123685B0756
:100A300006D5114A536812490B40E1680B435360D5
:100A4000FFF760FF0C4B5A6812090F2313400D4A41
:100A5000D35CD8400C4B18600320FFF74FFC0020FC
:100A600070BD0120FCE70120FAE70120F8E7012032
:100A7000F6E7C04600200240001002408813000044
:100A8000FFF8FFFF840B000808000020FEE7FEE7E8
:100A90007047704710B5FFF769FC10BD7047000044
:100AA0000D488546FFF7FAFF0C480D490D4A002313
:100AB00002E0D458C4500433C4188C42F9D30A4A13
:100AC0000A4C002301E013600432A242FBD300F081
:100AD00019F8FFF709FCFEE70020002000000020C5
:100AE0000C0000209C0B00080C0000202C000020B3
:100AF000FEE703008218934200D17047197001335A
:100B0000F9E7000070B500260C4C0D4D641BA410D5
:100B1000A64209D1002600F019F80A4C0A4D641BC0
:100B2000A410A64205D170BDB300EB58984701361A
:100B3000EEE7B300EB5898470136F2E7940B000854
:100B4000940B0008980B0008940B0008F8B5C046F9
:100B5000F8BC08BC9E467047F8B5C046F8BC08BC57
:040B60009E467047F6
:100B64000102030405060708090A0B0C0D0E0F10F9
:100B740002030405060708090A0B0C0D0E0F1010DA
:100B84000000000000000000010203040607080939
:040B94004102000812
:040B98001902000836
:0C0B9C00010000000400000000127A00BC
:0400000508000AA144
:00000001FF
